{"abi":[{"type":"constructor","inputs":[{"name":"tokenAddress","type":"address","internalType":"address"}],"stateMutability":"nonpayable"},{"type":"receive","stateMutability":"payable"},{"type":"function","name":"buyTokens","inputs":[],"outputs":[],"stateMutability":"payable"},{"type":"function","name":"owner","inputs":[],"outputs":[{"name":"","type":"address","internalType":"address"}],"stateMutability":"view"},{"type":"function","name":"rate","inputs":[],"outputs":[{"name":"","type":"uint256","internalType":"uint256"}],"stateMutability":"view"},{"type":"function","name":"renounceOwnership","inputs":[],"outputs":[],"stateMutability":"nonpayable"},{"type":"function","name":"setRate","inputs":[{"name":"newRate","type":"uint256","internalType":"uint256"}],"outputs":[],"stateMutability":"nonpayable"},{"type":"function","name":"token","inputs":[],"outputs":[{"name":"","type":"address","internalType":"contract Shadow"}],"stateMutability":"view"},{"type":"function","name":"transferOwnership","inputs":[{"name":"newOwner","type":"address","internalType":"address"}],"outputs":[],"stateMutability":"nonpayable"},{"type":"function","name":"withdrawETH","inputs":[],"outputs":[],"stateMutability":"nonpayable"},{"type":"event","name":"ETHWithdrawn","inputs":[{"name":"owner","type":"address","indexed":true,"internalType":"address"},{"name":"amount","type":"uint256","indexed":false,"internalType":"uint256"}],"anonymous":false},{"type":"event","name":"OwnershipTransferred","inputs":[{"name":"previousOwner","type":"address","indexed":true,"internalType":"address"},{"name":"newOwner","type":"address","indexed":true,"internalType":"address"}],"anonymous":false},{"type":"event","name":"TokensPurchased","inputs":[{"name":"buyer","type":"address","indexed":true,"internalType":"address"},{"name":"ethAmount","type":"uint256","indexed":false,"internalType":"uint256"},{"name":"tokenAmount","type":"uint256","indexed":false,"internalType":"uint256"}],"anonymous":false},{"type":"error","name":"OwnableInvalidOwner","inputs":[{"name":"owner","type":"address","internalType":"address"}]},{"type":"error","name":"OwnableUnauthorizedAccount","inputs":[{"name":"account","type":"address","internalType":"address"}]}],"bytecode":{"object":"0x60806040526103e860025534801562000016575f80fd5b5060405162000dae38038062000dae83398181016040528101906200003c9190620002a0565b335f73ffffffffffffffffffffffffffffffffffffffff168173ffffffffffffffffffffffffffffffffffffffff1603620000b0575f6040517f1e4fbdf7000000000000000000000000000000000000000000000000000000008152600401620000a79190620002e1565b60405180910390fd5b620000c1816200017a60201b60201c565b505f73ffffffffffffffffffffffffffffffffffffffff168173ffffffffffffffffffffffffffffffffffffffff160362000133576040517f08c379a00000000000000000000000000000000000000000000000000000000081526004016200012a906200035a565b60405180910390fd5b8060015f6101000a81548173ffffffffffffffffffffffffffffffffffffffff021916908373ffffffffffffffffffffffffffffffffffffffff160217905550506200037a565b5f805f9054906101000a900473ffffffffffffffffffffffffffffffffffffffff169050815f806101000a81548173ffffffffffffffffffffffffffffffffffffffff021916908373ffffffffffffffffffffffffffffffffffffffff1602179055508173ffffffffffffffffffffffffffffffffffffffff168173ffffffffffffffffffffffffffffffffffffffff167f8be0079c531659141344cd1fd0a4f28419497f9722a3daafe3b4186f6b6457e060405160405180910390a35050565b5f80fd5b5f73ffffffffffffffffffffffffffffffffffffffff82169050919050565b5f6200026a826200023f565b9050919050565b6200027c816200025e565b811462000287575f80fd5b50565b5f815190506200029a8162000271565b92915050565b5f60208284031215620002b857620002b76200023b565b5b5f620002c7848285016200028a565b91505092915050565b620002db816200025e565b82525050565b5f602082019050620002f65f830184620002d0565b92915050565b5f82825260208201905092915050565b7f496e76616c696420746f6b656e206164647265737300000000000000000000005f82015250565b5f62000342601583620002fc565b91506200034f826200030c565b602082019050919050565b5f6020820190508181035f830152620003738162000334565b9050919050565b610a2680620003885f395ff3fe60806040526004361061007e575f3560e01c8063d0febe4c1161004d578063d0febe4c14610123578063e086e5ec1461012d578063f2fde38b14610143578063fc0c546a1461016b5761008d565b80632c4e722e1461009157806334fcf437146100bb578063715018a6146100e35780638da5cb5b146100f95761008d565b3661008d5761008b610195565b005b5f80fd5b34801561009c575f80fd5b506100a56102c4565b6040516100b29190610659565b60405180910390f35b3480156100c6575f80fd5b506100e160048036038101906100dc91906106a0565b6102ca565b005b3480156100ee575f80fd5b506100f761031e565b005b348015610104575f80fd5b5061010d610331565b60405161011a919061070a565b60405180910390f35b61012b610195565b005b348015610138575f80fd5b50610141610358565b005b34801561014e575f80fd5b506101696004803603810190610164919061074d565b610449565b005b348015610176575f80fd5b5061017f6104cd565b60405161018c91906107d3565b60405180910390f35b5f34116101d7576040517f08c379a00000000000000000000000000000000000000000000000000000000081526004016101ce90610846565b60405180910390fd5b5f600254346101e69190610891565b905060015f9054906101000a900473ffffffffffffffffffffffffffffffffffffffff1673ffffffffffffffffffffffffffffffffffffffff166340c10f1933836040518363ffffffff1660e01b81526004016102449291906108d2565b5f604051808303815f87803b15801561025b575f80fd5b505af115801561026d573d5f803e3d5ffd5b505050503373ffffffffffffffffffffffffffffffffffffffff167f8fafebcaf9d154343dad25669bfa277f4fbacd7ac6b0c4fed522580e040a0f3334836040516102b99291906108f9565b60405180910390a250565b60025481565b6102d26104f2565b5f8111610314576040517f08c379a000000000000000000000000000000000000000000000000000000000815260040161030b9061096a565b60405180910390fd5b8060028190555050565b6103266104f2565b61032f5f610579565b565b5f805f9054906101000a900473ffffffffffffffffffffffffffffffffffffffff16905090565b6103606104f2565b5f4790505f81116103a6576040517f08c379a000000000000000000000000000000000000000000000000000000000815260040161039d906109d2565b60405180910390fd5b6103ae610331565b73ffffffffffffffffffffffffffffffffffffffff166108fc8290811502906040515f60405180830381858888f193505050501580156103f0573d5f803e3d5ffd5b506103f9610331565b73ffffffffffffffffffffffffffffffffffffffff167f94b2de810873337ed265c5f8cf98c9cffefa06b8607f9a2f1fbaebdfbcfbef1c8260405161043e9190610659565b60405180910390a250565b6104516104f2565b5f73ffffffffffffffffffffffffffffffffffffffff168173ffffffffffffffffffffffffffffffffffffffff16036104c1575f6040517f1e4fbdf70000000000000000000000000000000000000000000000000000000081526004016104b8919061070a565b60405180910390fd5b6104ca81610579565b50565b60015f9054906101000a900473ffffffffffffffffffffffffffffffffffffffff1681565b6104fa61063a565b73ffffffffffffffffffffffffffffffffffffffff16610518610331565b73ffffffffffffffffffffffffffffffffffffffff16146105775761053b61063a565b6040517f118cdaa700000000000000000000000000000000000000000000000000000000815260040161056e919061070a565b60405180910390fd5b565b5f805f9054906101000a900473ffffffffffffffffffffffffffffffffffffffff169050815f806101000a81548173ffffffffffffffffffffffffffffffffffffffff021916908373ffffffffffffffffffffffffffffffffffffffff1602179055508173ffffffffffffffffffffffffffffffffffffffff168173ffffffffffffffffffffffffffffffffffffffff167f8be0079c531659141344cd1fd0a4f28419497f9722a3daafe3b4186f6b6457e060405160405180910390a35050565b5f33905090565b5f819050919050565b61065381610641565b82525050565b5f60208201905061066c5f83018461064a565b92915050565b5f80fd5b61067f81610641565b8114610689575f80fd5b50565b5f8135905061069a81610676565b92915050565b5f602082840312156106b5576106b4610672565b5b5f6106c28482850161068c565b91505092915050565b5f73ffffffffffffffffffffffffffffffffffffffff82169050919050565b5f6106f4826106cb565b9050919050565b610704816106ea565b82525050565b5f60208201905061071d5f8301846106fb565b92915050565b61072c816106ea565b8114610736575f80fd5b50565b5f8135905061074781610723565b92915050565b5f6020828403121561076257610761610672565b5b5f61076f84828501610739565b91505092915050565b5f819050919050565b5f61079b610796610791846106cb565b610778565b6106cb565b9050919050565b5f6107ac82610781565b9050919050565b5f6107bd826107a2565b9050919050565b6107cd816107b3565b82525050565b5f6020820190506107e65f8301846107c4565b92915050565b5f82825260208201905092915050565b7f53656e642045544820746f2062757920746f6b656e73000000000000000000005f82015250565b5f6108306016836107ec565b915061083b826107fc565b602082019050919050565b5f6020820190508181035f83015261085d81610824565b9050919050565b7f4e487b71000000000000000000000000000000000000000000000000000000005f52601160045260245ffd5b5f61089b82610641565b91506108a683610641565b92508282026108b481610641565b915082820484148315176108cb576108ca610864565b5b5092915050565b5f6040820190506108e55f8301856106fb565b6108f2602083018461064a565b9392505050565b5f60408201905061090c5f83018561064a565b610919602083018461064a565b9392505050565b7f52617465206d7573742062652067726561746572207468616e203000000000005f82015250565b5f610954601b836107ec565b915061095f82610920565b602082019050919050565b5f6020820190508181035f83015261098181610948565b9050919050565b7f4e6f7468696e6720746f207769746864726177000000000000000000000000005f82015250565b5f6109bc6013836107ec565b91506109c782610988565b602082019050919050565b5f6020820190508181035f8301526109e9816109b0565b905091905056fea26469706673582212208955c557087a80422227382fea05de684dbc10ff6c65e73ff5b303bca3fc1ce464736f6c63430008140033","linkReferences":{}},"methodIdentifiers":{"buyTokens()":"d0febe4c","owner()":"8da5cb5b","rate()":"2c4e722e","renounceOwnership()":"715018a6","setRate(uint256)":"34fcf437","token()":"fc0c546a","transferOwnership(address)":"f2fde38b","withdrawETH()":"e086e5ec"},"id":28}